:020000040800F2
:10000000204100204501000801260008BF2000080B
:10001000FD25000829090008072F0008000000003E
:10002000000000000000000000000000D9270008C8
:100030003D0B00080000000089260008ED2800089C
:100040005F0100085F0100085F0100085F01000810
:100050005F0100085F010008ED1B00085F01000858
:100060005F0100085F0100085F0100085F010008F0
:100070005F0100085F0100085F0100085F010008E0
:100080005F0100085F0100085F0100085F010008D0
:100090005F0100085F0100085F0100085F010008C0
:1000A0005F0100085F0100085F0100085F010008B0
:1000B000512900085F0100085F0100085F01000886
:1000C0005F0100085F0100085F0100085F01000890
:1000D0005F010008412C0008F12C00085F010008B6
:1000E0005F0100085F0100085F0100085F01000870
:1000F0005F0100085F0100085F0100085F01000860
:100100005F0100085F0100085F0100085F0100084F
:100110005F0100085F0100085F0100085F0100083F
:100120005F0100085F0100085F0100085F0100082F
:10013000DFF80CD000F09AFA00480047313E000882
:10014000204100200648804706480047FEE7FEE7BA
:10015000FEE7FEE7FEE7FEE7FEE7FEE7FEE7FEE777
:10016000F12800083101000840EA01039B0703D091
:1001700009E008C9121F08C0042AFAD203E011F8E6
:10018000013B00F8013B521EF9D27047D2B201E0A8
:1001900000F8012B491EFBD270470022F6E710B58C
:1001A00013460A4604461946FFF7F0FF204610BDE5
:1001B00030B505462A460B4612F8010B13F8014BE1
:1001C00008B1A042F8D01CB1002802D06D1CF1E7A4
:1001D000284630BD421C10F8011B0029FBD1801AB3
:1001E000704770B5064602F0C7FE046805460A224D
:1001F0000021304600F049F82C6070BD30B50B4648
:10020000014600202022012409E021FA02F59D4246
:1002100005D303FA02F5491B04FA02F52844151E1A
:10022000A2F10102F1DC30BD2DE9F05F05460020AE
:1002300092469B4688460646814640241BE0284657
:1002400041464746224600F032FA53465A46C01A03
:10025000914110D311461846224600F019FA2D1A82
:1002600067EB01084F4622460120002100F010FAFA
:1002700017EB00094E41201EA4F10104DFDC4846C3
:1002800031462A464346BDE8F09F2DE9F0479146A6
:100290000F4680460446002614F8015B2DB100F09D
:1002A00029FA0068405DC007F6D12B2D02D02D2D14
:1002B00018D0641E4A463946204600F01FFA27B17E
:1002C0003968A14201D1C7F8008071054FF00204DE
:1002D0000BD54042002803DD02F04EFE0460A0076B
:1002E000BDE8F08746F48066E4E70028F8DA02F01B
:1002F00043FE04606FF00040F2E72DE9FE4F8046B8
:1003000081EA0300C00F0C46009021F0004123F069
:100310000045B8EB0200A94105D24046214690466F
:100320001C460B46024623F00040104347D0270DE1
:10033000C7F30A00C3F30A510290401A0190402803
:100340006BDAC3F3130040F4801B0098924620B18F
:100350000023D2EB030A63EB0B0B01985946C0F163
:100360004002504600F094F906460D465046594664
:10037000019A00F0ACF910EB08006141002487EA13
:10038000115284EAE7731A4340D0009A62B3019A8B
:10039000012A4FEA075215DC001B61EB02014FF006
:1003A000004202EA0752CDE90042001C41F58011EB
:1003B00032462B4600F000FA03B0BDE8F08F40460D
:1003C0002146F9E7001B61EB0201001C41F5801397
:1003D00000185B412018A2F5001747EB030140EA23
:1003E000D570B6196D4111E06D084FEA360645EA41
:1003F000C0754FEA0752001B61EB0201001C41F57A
:10040000801149084FEA30000019514132462B460D
:1004100003B0BDE8F04F00F0C0B9009801224000E1
:100420000023D0EB020263EBE073009821464FEA11
:10043000E074B8EB000061EB0401E9E783F00043EE
:100440005BE781F0004158E72DE9FE4F81EA0304A4
:1004500004F0004421F0004100944FF0000B23F021
:10046000004350EA01045ED052EA03045BD0C3F3B8
:100470000A54C1F30A552C44A4F2F3340194A0FBAE
:100480000254C1F3130141F48011C3F3130343F485
:10049000801301FB024400FB034E840A970A44EADE
:1004A000815447EA8357A4FB076802958D0A05FB30
:1004B00007854FEA932C04FB0C542705029D4FEA55
:1004C000065847EA1637B5EB08056EEB070C870EA2
:1004D000920E47EA811742EA8312A7FB0201B6EBAC
:1004E0000B0164EB00042B0D43EA0C335E1844EB64
:1004F0001C50DA465146E7FB0201C5F313044FEAEC
:100500000B3343EA14534FEA0432019C43EA0603D7
:10051000A4F10C040294009CCDE900B400F04CF965
:1005200003B0BDE8F08F00200146F9E72DE9F04D5A
:1005300081EA030404F0004B21F0004514464FF01B
:10054000000A23F0004150EA050220D054EA0102DB
:100550001DD0C5F30A570246C5F31303C1F31300B8
:10056000C1F30A5640F4801543F48013A7EB060844
:10057000101BD64608F2FD3873EB050002D308F1D4
:10058000010801E092185B41B8F1000F03DA002086
:100590000146BDE8F08D00204FF4801106468446E8
:1005A0000EE0171B73EB050705D3121B63EB050366
:1005B00006434CEA010C49084FEA300092185B41AF
:1005C00050EA0107EDD152EA030012D082EA04009A
:1005D00083EA0501084305D0101BAB4106D2012276
:1005E000002306E000224FF0004302E06FF001021A
:1005F00053101AEB06004CEB085110EB0A0041EBCC
:100600000B01BDE8F04D00F0C8B8C1F30A52C1F3C8
:10061000130140F2FF3341F480119A4202DA0020C4
:100620000146704740F233439A42A2F2334202DC61
:10063000524200F03CB800F02BB8000030B5041E68
:1006400071F1000404DB4FF00044404264EB01010F
:10065000141E73F1000405DB1C464FF000435242A8
:1006600063EB0403994208BF904230BD064C074D2E
:1006700006E0E06840F0010394E807009847103472
:10068000AC42F6D3FFF758FD88620008A862000864
:10069000202A04DB203A00FA02F100207047914042
:1006A000C2F1200320FA03F3194390407047202A37
:1006B00004DB203A21FA02F00021704721FA02F30C
:1006C000D040C2F120029140084319467047202AC9
:1006D00006DBCB17203A41FA02F043EAE07306E06A
:1006E00041FA02F3D040C2F120029140084319467A
:1006F0007047000000487047846200082DE9F05FF1
:1007000082460078002715468B460AF10104B94657
:10071000302801D09DB113E014F8010B012778288F
:1007200003D0582801D045B10AE00DB1102D07D1F2
:100730000027102514F8010B02E0082500E00A2527
:100740000026B0460EE005FB080005FB06F1012778
:1007500001EB10461FFA80F8B6F5803F00D3B9468A
:1007600014F8010B294600F075F80028EBDABBF10C
:10077000000F05D00FB1641E00E05446CBF80040D6
:10078000B9F1000F06D002F0F7FB02210160C81E8C
:10079000BDE8F09F48EA0640FAE710B5141E73F171
:1007A000000408DA401C41F1000192185B411A4331
:1007B00001D120F0010010BD2DE9F04D92469B467D
:1007C00011B1B1FA81F202E0B0FA80F22032904623
:1007D000FFF75EFF04460F4640EA0A0041EA0B01BC
:1007E00053465A46084313D0114653EA010019D024
:1007F000C8F140025046FFF75AFF05460E465046E4
:1008000059464246FFF744FF084305D0012004E063
:1008100020463946BDE8F08D0020054346EAE076E3
:100820002C4337430A986305E40AA0EB0800002232
:10083000FD0A44EA47540A3002D500200146E9E7A0
:10084000010510196941DDE9084500196941BDE854
:10085000F04DA2E73A2800D2303820F02002412A99
:1008600001D3A2F13700884201D34FF0FF30704727
:1008700070B504461B4890F8385700F5E26030F830
:100880001560B6F5FA7F02DB02F0D8FF26E005EB33
:100890004500C0EBC511144800EB81008455114898
:1008A000B0F83A07401C81B20E48A0F83A1700F59C
:1008B000E26030F81500401C81B20C4820F8151099
:1008C00026B93E2C02D102F0B9FF07E008480078B3
:1008D0000D2803D10A2C01D102F0B0FF04480470A6
:1008E00070BD0000EC330020EC130020FC3A002027
:1008F0000800002008B50121082001F0D7FE0220E1
:10090000ADF8000010208DF8030003208DF80200E0
:100910006946044801F008FA0221024801F0E3FAAE
:1009200008BD0000000C014000BFFEE710B51848EC
:1009300090F82901012809D11548B0F84211012089
:1009400000F086F9012821D1002010BD104890F850
:10095000290102280AD10E48B0F8401100F22B10EC
:1009600000F048F9012811D10020EEE7084890F87E
:10097000290103280AD10648B0F8401100F22B10D3
:1009800000F0A6F9012801D10020DEE70120DCE714
:10099000AC1000207CB505460E4600F0AFF800F024
:1009A00025F8F8B9002405E000F098F80DF80400E7
:1009B000601CC4B2052CF7DB9DF800009DF8011007
:1009C00008449DF8021008449DF8031008449DF85F
:1009D0000410884208D19DF8000030709DF8020094
:1009E000287001E001207CBD0020FCE710B5002448
:1009F0001548006820F0F0001349086008460068B8
:100A000040F08000086004E0601CC4B2012002F0E5
:100A10008BFF0E48006808B1642CF5DB642C01DB09
:100A2000012010BD002404E0601CC4B2012002F0CB
:100A30007BFF0648006808B9642CF5DB642C01DBF9
:100A40000120EEE70020ECE7040C01402481214264
:100A500008B50121082001F029FE4FF40070ADF81F
:100A6000000010208DF8030003208DF80200694675
:100A7000064801F059F94FF40071044801F033FAC7
:100A800000F03CF8FFF7B2FF08BD0000000C014089
:100A900010B5002404E0601CC4B2012002F044FF41
:100AA0000D48006808B1642CF5DB002404E0601CEC
:100AB000C4B2012002F038FF0748006808B9642C6E
:100AC000F5DB282002F030FF0348006808B1012060
:100AD00010BD0020FCE700002481214270B50024F5
:100AE000002506E06006040EFFF7D2FF0443681CF1
:100AF000C5B2082DF6DB204670BD000010B50C48CD
:100B0000006820F0F0000A4908600846006840F0DC
:100B100030000860002007490860142002F0DEFE63
:100B200001200549C1F8A4011E2002F0FDFE10BD00
:100B3000040C0140A4812142008021427047000042
:100B4000802800DB7047102900DBFBE7034B03EB39
:100B5000012323F8102000BFF4E70000AC000020C0
:100B600070B5B4B005460E461446C82102A8FFF77A
:100B700014FB10484078012803D00E484078032821
:100B800016D13CB133462A460BA102A8009402F0CC
:100B9000CDF905E033462A460FA102A802F0C6F9B6
:100BA000012102A800F0F2F9012801D134B070BD92
:100BB0000020FBE7AC10002041542B43574A415022
:100BC0005F4445463D222573222C222573222C2288
:100BD0002573220D0A00000041542B43574A41500F
:100BE0005F4445463D222573222C222573220D0A9F
:100BF0000000000030B5B3B004460D46C82101A87E
:100C0000FFF7CBFA012107A000F0C0F92B462246DE
:100C100008A101A802F08AF9012101A800F0B6F9A3
:100C200033B030BD41542B4349504D55583D300DE4
:100C30000A00000041542B43495053544152543D43
:100C400022544350222C222573222C25640D0A00A5
:100C500030B5B3B004460D46C82101A8FFF79DFA90
:100C6000012C0ED101210CA000F090F92A460EA112
:100C700001A802F05BF9012101A800F087F933B067
:100C800030BD0EA101A802F051F9012101A800F028
:100C90007DF90020F3E7000041542B4349504D55A6
:100CA000583D310D0A00000041542B434950534533
:100CB000525645523D312C25640D0A0041542B43B8
:100CC00049505345525645523D300D0A0000000030
:100CD00030B5B3B004460D46C82101A8FFF75DFA50
:100CE000012108A000F052F914202B46224609A148
:100CF000009001A802F01AF9012101A800F046F9BC
:100D000033B030BD41542B4349504D55583D300D03
:100D10000A00000041542B43495053544152543D62
:100D200022554450222C222573222C25640D0A00C2
:100D300070B506464FF4FA713046FFF72EFA424876
:100D400090F8391790F83807814235D13E4890F82D
:100D500039073E490978884215D13D483B49097811
:100D600030F8110000280EDD39483849097830F88C
:100D7000110038490988884205D137480078401C5D
:100D8000354908700DE0304890F839072F49087050
:100D90002F48097830F811002E49088000202E498C
:100DA00008702D480078032804DD02F047FD2BA0D1
:100DB00000F06CF8002070BD00BF234890F8394760
:100DC000234830F8145004EB4400C0EBC4122A4806
:100DD00000EB82012A463046FFF7C6F904EB4400D7
:100DE000C0EBC412244800EB8203174890F839176F
:100DF0002A4622A000F04AF804EB4401C1EBC412D9
:100E00001D4901EB82004FF4FA71FFF7C6F900218A
:100E10000F4820F814100C4890F83907401CC1B254
:100E2000094880F8391790F83907142803DB0021A6
:100E3000054880F8391700200449087005490880E2
:100E4000054908702846B6E7EC3300200900002069
:100E5000FC3A00200A0000200C0000202A2A2A2A3E
:100E60002A2A2A6368616E67654C696E652A2A2A98
:100E70002A2A2A2A0D0A0000EC1300205B25645D53
:100E80002C5B25645D2C2573000000000FB410B5A9
:100E9000ADF5027D00244FF4007102A8FFF77DF943
:100EA00085A8019002A8019A849902F053F80020C5
:100EB000019002A8FFF78EF90446214602A803F02C
:100EC00097F80DF5027D10BC5DF814FB70B5044673
:100ED0000D46214627A0FFF7D9FF042D2DD12078FC
:100EE0006C282AD16078652827D1A078642824D17D
:100EF000E078312808D12248006808B9012000E0D4
:100F000000201F49086018E0E078322808D11D4809
:100F1000006808B9012000E000201A4908600CE0D0
:100F2000E078332809D11748001F006808B901206C
:100F300000E000201349091F0860062D19D1207810
:100F4000622816D16078752813D1A0787A2810D13C
:100F5000E0787A280DD1207965280AD16079722845
:100F600007D10948006808B9012000E000200649BF
:100F7000086070BD0D0A52583A25732E0D0A000004
:100F8000A00121429C012242848121422DE9F041AD
:100F900005460E460027B84615B90020BDE8F08189
:100FA000284603F0AFF80EB90020F7E70027B8464F
:100FB0002AE0322000F0EEFB1748FFF7B9FE0446A6
:100FC000B4B116A11448FFF7F3F808B101270FE0F8
:100FD00013A11148FFF7ECF820B913A10E48FFF751
:100FE000E7F808B1032703E021460B4800F0D8FBDF
:100FF00008F1010000F0FF08002F00DD05E0B8F166
:10100000640F01DD022700E0D3E700BF294608A0F6
:10101000FFF73CFF3846C1E72A3B00204F4B00005A
:101020004552524F520000004641494C000000001A
:10103000454E442041543A25730000002DE9F0410B
:101040008EB080460F466425302102A8FFF7A5F830
:101050000024002639468AA001F058FF8E4890F8F7
:101060002A0170B98DA001F051FFFFF75FFC002845
:1010700003DD00200EB0BDE8F0810120864981F833
:101080002A01854890F82901012874D1824890F9F5
:1010900047010090804890F9463190F9452190F938
:1010A000441184A001F032FF002671E08C48805783
:1010B000401C18B18A488057032800DD66E0884844
:1010C00082573B4687A102A801F030FF002102A809
:1010D000FFF75CFF4FF47A751AE00A2000F05AFB24
:1010E0008548FFF725FE0446012C04D1824800788C
:1010F0003E2800D110E0002C04DD21467E4800F09F
:101100004FFB05E0644890F82A0108B90020B1E7D8
:10111000681E80B2051EE0DC00BF294677A0FFF7FD
:10112000B5FE002D31DD3946404601F0F3FD4FF4A8
:101130007A7525E00A2000F02DFB6F48FFF7F8FDD7
:101140000446554890F82A0108B9002092E7002C7F
:1011500016DD6EA16848FFF72BF818B16DA0FFF7F8
:1011600095FE11E070A16448FFF722F820B170A04D
:10117000FFF78CFE08E011E021465F4800F010FB0D
:10118000681E80B2051ED5DC00BF00BF701CC6B251
:10119000042E8BDB6BA001F0B9FE6FE03A466DA127
:1011A00002A801F0C3FE002102A8FFF7EFFE4FF4F2
:1011B0007A751AE00A2000F0EDFA4F48FFF7B8FD03
:1011C0000446012C04D14C4800783E2800D110E0A0
:1011D000002C04DD2146484800F0E2FA05E02E48E4
:1011E00090F82A0108B9002044E7681E80B2051E65
:1011F000E0DC00BF294641A0FFF748FE002D3DDDA1
:10120000414658A0FFF742FE3946404601F082FDB4
:101210004FF47A752EE00A2000F0BCFA3648FFF74A
:1012200087FD04461C4890F82A0108B9002021E7F0
:10123000002C1EDD35A13048FEF7BAFF20B135A0E5
:10124000FFF724FE012015E737A12B48FEF7B0FF7A
:1012500020B137A0FFF71AFE00200BE7012C04D1C4
:1012600025480078202800D104E02146224800F0DB
:1012700097FA00BF681E80B2051ECCDC0020F9E69C
:10128000455350383236365F53656E64446174613D
:10129000282564292E0D0A00AC10002065737038D3
:1012A0003236362E6973436F6E6E6563743D302E31
:1012B0000D0A000069645B305D3D2564A3AC696480
:1012C0005B315D3D2564A3AC69645B325D3D2564A3
:1012D000A3AC69645B335D3D25640D0A000000002A
:1012E000F011002041542B43495053454E443D25B5
:1012F000642C25640D0A00002A3B00207472797466
:10130000696D653D25642E0D0A00000053454E446D
:10131000204F4B0053656E6444617461204F4B2134
:10132000212E0D0A000000004552524F52000000CD
:1013300053656E644461746120656E64322E0D0ADB
:1013400000000000656E64207463702073656E6435
:101350002E0D0A0041542B43495053454E443D2520
:10136000640D0A0053656E643A25732E0D0A000061
:1013700030B5B3B004460D46C82101A8FEF70DFFF5
:101380002B46224604A101A801F0D0FD012101A8AD
:10139000FFF7FCFD33B030BD41542B435744484365
:1013A000505F4445463D25642C25640D0A0000002D
:1013B00010B58CB0044630216846FEF7EEFE22469A
:1013C00008A1684601F0B2FD01216846FFF7DEFD85
:1013D000012804D10748447001200CB010BD002042
:1013E000FBE7000041542B43574D4F44453D2564D6
:1013F0000D0A0000AC1000202DE9F04104460F4614
:1014000015461E464FF000082D48A0F842710020F6
:101410002B4981F82A01FF2081F84401FF21284847
:1014200080F8451180F8461180F847111E2176306A
:10143000FEF7B3FE00202249A1F83E03A1F83C03C9
:1014400014212048FEF7A9FE012C0DD101201C49D2
:1014500081F8290125B12A461BA11A4801F066FD31
:101460001748A0F840611EE0022C0DD1022014495B
:1014700081F8290125B12A4613A1124801F056FD31
:101480000F48A0F840610EE0032C0CD103200C495A
:1014900081F8290125B12A460BA10A4801F046FD31
:1014A0000748A0F840610648B0F8403190F829118B
:1014B000044A06A0FFF7EAFC0020BDE8F081000026
:1014C000AC100020D7110020257300000D0A636FB7
:1014D0006E6E6563744D6F64653A25642C20697087
:1014E0003A25732C20706F72743A25640D0A00003F
:1014F000F0B5B5B004460D4616461F46C82103A8F0
:10150000FEF74BFE0C484078022803D00A4840788A
:1015100003280FD12B46224608A103A8CDE9006776
:1015200001F004FD012103A8FFF730FD012801D1DE
:1015300035B0F0BD0020FBE7AC10002041542B4338
:10154000575341505F4445463D222573222C2225A6
:1015500073222C25642C25642C340D0A0000000015
:1015600010B5B2B00446C8216846FEF716FE1CB19D
:101570002046FEF72FFE10B9002032B010BD2246E3
:1015800004A1684601F0D2FC01216846FFF7FEFC89
:101590000020F2E741542B43495041505F444546F7
:1015A0003D222573220D0A0010B5B2B00446C821B1
:1015B0006846FEF7F2FD1CB12046FEF70BFE10B99F
:1015C000002032B010BD224604A1684601F0AEFCF6
:1015D00001216846FFF7DAFC0020F2E741542B4373
:1015E00049505354415F4445463D222573220D0A1C
:1015F000000000002DE9F04106460D4617461C4646
:101600004FF0000814214D48FEF7C7FD14214B4848
:101610009530FEF7C2FD012E1FD1012047496239E6
:1016200048702DB12A4646A14448603801F07EFC3E
:101630002FB13A4642A14148403801F077FC24B12D
:1016400022463FA13D4801F071FC3C4A403AA2F1DC
:1016500020013CA0FFF71AFC22E00520374962393F
:1016600081F8F500022081F8F60048702A4634A17E
:101670003248333001F05AFC3A4631A12F485330FA
:1016800001F054FC2CB122462DA12C48953001F0DC
:101690004DFC2A4A5332A2F1200130A0FFF7F6FB9D
:1016A000002026496239087000F05AFA012131A061
:1016B000FFF76CFC214862384078022804D01F48AC
:1016C00062384078032813D11C4962394878FFF703
:1016D0006FFE1A48623890F8F63090F8F52000F165
:1016E000B5019530FFF704FF14489530FFF738FF38
:1016F000124862384078012804D010486238407897
:1017000003280ED10D4962394878FFF751FE0022B7
:101710000A494039A1F12000FFF722FA0748FFF7F4
:1017200043FF0649623948780121FFF721FE012174
:1017300012A0FFF72BFC0020BDE8F0810E11002065
:10174000257300000D0A53544120737369643A25D0
:10175000732C207073773A25730D0A000D0A4150DF
:1017600020737369643A25732C207073773A25735C
:101770000D0A0000415445300D0A000041542B432E
:10178000574C41504F50543D312C323034370D0AB4
:101790000000000010B50446204602F09FF810BD7E
:1017A0002DE9F04706460D464FF00008002416B913
:1017B0000020BDE8F087B748007801285CD1B6A1C9
:1017C0003046FEF7F5FC044604B30027641D2021D3
:1017D000B048801CFEF7E1FC06E02178AD48801C93
:1017E000C155641C781CC7B2202F08DA3CB12078A0
:1017F00028B120780D2802D020780A28EDD1A549FB
:10180000891CA7A001F082FB0120D2E7A7A13046E6
:10181000FEF7CEFC044604B30027093440219D485E
:101820002230FEF7BAFC06E021789A482230C155F2
:10183000641C781CC7B2402F08DA3CB1207828B16C
:1018400020780D2802D020780A28EDD19149223144
:1018500099A001F05BFB0120ABE79CA13046FEF7AD
:10186000A7FC044634B101208A4948700220087060
:1018700001209EE701209CE797A13046FEF798FCE7
:101880000446B4B10027641E2046FEF7AAFCC7B286
:101890002246394692A001F039FB042F03DAFF21DA
:1018A0009348C15502E093A001F030FB4FF00108CE
:1018B00000BF9AA13046FEF77BFC04462CB1002005
:1018C000744981F82A014FF0010896A13046FEF7CD
:1018D0006FFC0446B4B10027641E2046FEF781FC6D
:1018E000C7B22246394692A001F010FB042F03DA5A
:1018F00079B27F48C15502E07EA001F007FB4FF0AE
:10190000010800BF8EA13046FEF752FC04462CB100
:101910000020604981F82A014FF001088DA130466E
:10192000FEF746FC0446002C67D00027B946641D2C
:101930000CB900203DE7574890F8290101280BD148
:101940002046FEF74EFC00F0FF0900E0641C14B1D5
:1019500020782C28FAD1641C2046FEF742FC4D4921
:10196000A1F83C0300E0641C14B120783A28FAD1B5
:10197000641C4FF4FA715E48001DFEF70EFC002057
:101980004449A1F83E030EE021784248B0F83E23D6
:1019900000F5A4708154641C3E48B0F83E03401C1E
:1019A0003C49A1F83E033B48B0F83E03B0F5FA7F4E
:1019B0000BDA3848B0F83E033649B1F83C13884298
:1019C00003DA14B1A01BA842DED93248B0F83E03B6
:1019D0003049B1F83C1388420CDB2E48B0F83E1376
:1019E00000F5A470FFF772FA00202A49A1F83E031F
:1019F000A1F83C034FF0010800BFB8F1000F01DD72
:101A00000120D6E62348B0F83E032249B1F83C1342
:101A100088423CDA1F48B0F83E03801C2844B0F5E9
:101A2000FA7F1FD81B48B0F83E1300F5A470084495
:101A30004AA1098801801748B0F83E03801C154967
:101A4000A1F83E03B1F83E2301F5A47150182A46CF
:101A50003146FEF789FB0F48B0F83E0328440D4994
:101A6000A1F83E030B48B0F83E030A49B1F83C1315
:101A700088420CDB0748B0F83E1300F5A470FFF76E
:101A800025FA00200349A1F83E03A1F83C03404693
:101A90008FE60000AC100020737369643A00000008
:101AA000737369643D222573220D0A00706173739C
:101AB000776F72643A0000007374615F70617373D2
:101AC000776F72643D222573220D0A0057494649FB
:101AD00020474F54204950002C434C4F534544005D
:101AE0003169643D25642C25732E0D0A0000000029
:101AF000F01100206572726F7221216572726F722F
:101B000021216572726F7221216572726F722121BB
:101B10006572726F7221210D0A000000434C4F5311
:101B2000454400002C434F4E4E45435400000000F6
:101B30003269643D25642C25732E0D0A00000000D7
:101B40006C696E6B206973206E6F742076616C69AE
:101B5000640000002B4950442C0000000D0A0000D6
:101B600008B50121102000F0A1FD0420ADF800000F
:101B700010208DF8030003208DF8020069460D48FF
:101B800000F0D2F804210B4800F0ADF94FF4FA70E0
:101B9000FFF700FE0421074800F0A3F94FF4FA70A4
:101BA000FFF7F8FD0421034800F09DF902A0FFF7BC
:101BB0006DF908BD001001400D0A657370383236AA
:101BC000362072657365740D0A00000010B5064872
:101BD000FFF7AEF80446002C03DD21460248FFF76C
:101BE000DFFD002010BD00002A3B002010B50120C1
:101BF00000F01CF8012809D1054908700846017851
:101C000004A001F083F9012000F00AF810BD0000E3
:101C1000260000204B65794E756D3A2025640A0038
:101C2000014908607047000014040140014600208B
:101C30000022074B1B6803EA0102054B14331B68A3
:101C40000B4013B10AB1012000E0002070470000F2
:101C500000040140002123498279002A3AD00A4633
:101C6000126803689A430B461A600A1D12680368DB
:101C70009A430B1D1A60027911440A6803681A43DB
:101C80000A60184A0832126803689A43154B0833F1
:101C90001A601A1D126803689A43124B0C331A60BB
:101CA0004279102A0ED11A1F126803681A430D4B8D
:101CB00008331A601A1D126803681A43094B0C3363
:101CC0001A600DE00749427911440A6803681A4313
:101CD0000A6005E0027911440A6803689A430A60C1
:101CE000704700000004014030B500228B071C0F34
:101CF0000F2303FA04F20B4B8C1053F82430934358
:101D0000084C8D1044F8253023468C1053F82430AD
:101D10008C07240F00FA04F42343024C8D1044F87E
:101D2000253030BD080001402DE9F0410246002574
:101D30000026002000230024002791F803C00CF0A7
:101D40000F0591F803C00CF0100CBCF1000F03D08C
:101D500091F802C04CEA050591F800C0BCF1000FF3
:101D600031D0146800202BE04FF0010C0CFA00F386
:101D7000B1F800C00CEA03069E4220D183004FF068
:101D80000F0C0CFA03F7BC4305FA03FC4CEA0404FD
:101D900091F803C0BCF1280F06D14FF0010C0CFAEA
:101DA00000FCC2F814C00AE091F803C0BCF1480F6F
:101DB00005D14FF0010C0CFA00FCC2F810C0401C19
:101DC0000828D1D31460B1F800C0BCF1FF0F34DD96
:101DD000546800202EE000F1080C4FF0010808FACA
:101DE0000CF3B1F800C00CEA03069E4221D1830037
:101DF0004FF00F0C0CFA03F7BC4305FA03FC4CEA56
:101E0000040491F803C0BCF1280F05D100F1080CBF
:101E100008FA0CF8C2F8148091F803C0BCF1480F1E
:101E200007D100F1080C4FF0010808FA0CF8C2F8CD
:101E30001080401C0828CED35460BDE8F08100001B
:101E4000F0B50A46002300240021002500F00046DA
:101E5000B6F1004F02D11D4EF16901E01B4E7168D1
:101E6000C0F3034583B200F44016B6F5401F08D115
:101E700021F07061154E766826F07066134F7E6013
:101E800012E000F48016B6F5801F06D1032606FA8C
:101E900005F4A14341F0706106E0460D360103FAF6
:101EA00006F6B14341F0706122B1460D360103FAE6
:101EB00006F6314300F00046B6F1004F02D1034E62
:101EC000F16101E0014E7160F0BD000000000140D1
:101ED0000246002093680B400BB1012000E0002077
:101EE0007047416170470161704700002DE9FF5F55
:101EF00081468A4698460027BB46B9F1080F01DDA6
:101F0000BDE8FF9F9BE098F8000080282FDA98F842
:101F10000060202E03DDA6F1200086B200E000263E
:101F200000251CE0002416E005EB06105649085C6D
:101F300080212141084030B1391988B252462946E2
:101F4000FEF7FEFD05E0391988B22946029AFEF730
:101F5000F7FD601CC4B2082CE6DB681CC5B2102D6E
:101F6000E0DB07F1080087B208F1010867E000260E
:101F70005EE006EB0610454911F8100098F80010D5
:101F8000884253D106EB0610404901EB40004078EF
:101F900098F80110884249D1002545E000241AE054
:101FA00006EB0610394901EB4000801C10F81500C3
:101FB00080212141084030B1391988B25246294662
:101FC000FEF7BEFD05E0391988B22946029AFEF7F0
:101FD000B7FD601CC4B2082CE2DB002420E006EB55
:101FE00006102A4901EB4000801C012101EB45014C
:101FF000405C80212141084040B107F108012144A3
:1020000088B252462946FEF79BFD07E007F108011A
:10201000214488B22946029AFEF792FD601CC4B2A0
:10202000082CDCDB681CC5B2102DB7DB701C86B237
:10203000572E9EDB08F1020807F1100087B298F8CE
:10204000000000287FF45FAF00250CE0FCB206E042
:1020500029462046029AFEF773FD601CC4B2802C0C
:10206000F6DB681CC5B2102DF0DBA9F101004FF6BC
:10207000FF7101EA001B0BF1100081B2584600F01D
:102080007FFA00BF3CE7000060430008D250000820
:1020900070B504460D461646802C00DB70BD802DC1
:1020A00000DBFBE7681C83B2601C82B22946204635
:1020B00000F03AFA304600F073F800BFEEE700BFD8
:1020C000FEE7000008B50121182000F0EFFA4FF4F8
:1020D0008070ADF8000003208DF8020010208DF80C
:1020E000030069460848FFF71FFE42F20310ADF8EF
:1020F000000003208DF8020010208DF803006946CF
:102100000248FFF711FE08BD000C0140001001401D
:102110002DE9FF4F81B005460F469946DDF838A0FE
:102120004FF0000B002000900024804600262EE097
:102130001AF808002038C0B2009000241FE0009870
:1021400000EB4000154901EB400010F804B00026F8
:1021500011E00BF0010028B1B9192819039AFFF713
:1021600097FF04E0B91928194A46FFF791FF4FEA93
:102170006B0B701CC6B2082EEBDB601CC4B2062CC5
:10218000DDDBA81DC5B208F1010000F0FF081AF858
:1021900008000028CCD105B0BDE8F08F3841000818
:1021A00010B504464FF4807004490860201200F016
:1021B000F7FAE0B200F0F4FA10BD0000100C014094
:1021C00008B50121142000F071FA4FF48070ADF8C9
:1021D000000010208DF8030003208DF802006946EE
:1021E0001548FFF7A1FD4FF480711348FFF77BFE00
:1021F0008020ADF8000010208DF8030003208DF83A
:10220000020069460D48FFF78FFD80210B48FFF75C
:102210006AFE4020ADF8000010208DF80300032076
:102220008DF8020069460548FFF77EFD402103480E
:10223000FFF759FE08BD00000008014000100140F2
:10224000002804DD4FF48071034A116103E04FF46C
:102250008071014A516170470010014070B5064617
:102260007F231A460021084600F05EF92C2000F07A
:10227000B9F9002408E0002503E03046FFF790FF9D
:102280006D1C802DF9D3641C802CF4D370BD2DE916
:10229000F04704460D4616461F46DDF820A03B4693
:1022A00032462946204600F03FF92C2000F09AF9EA
:1022B000A0460AE0A94604E05046FFF771FF09F185
:1022C0000109B945F8D308F10108B045F2D3BDE8DA
:1022D000F08710B5FFF7F6FE00F016F90120FFF7C2
:1022E000AFFF112000F07EF9782001F0F7FAB1205D
:1022F00000F078F9012000F069F92C2000F066F96F
:102300002D2000F063F9B22000F06CF9012000F0FC
:102310005DF92C2000F05AF92D2000F057F9B32078
:1023200000F060F9012000F051F92C2000F04EF986
:102330002D2000F04BF9012000F048F92C2000F08E
:1023400045F92D2000F042F9B42000F04BF90720A8
:1023500000F03CF9C02000F045F9A22000F036F969
:10236000022000F033F9842000F030F9C12000F0A1
:1023700039F9C52000F02AF9C22000F033F90A200B
:1023800000F024F9002000F021F9C32000F02AF920
:102390008A2000F01BF92A2000F018F9C42000F070
:1023A00021F98A2000F012F9EE2000F00FF9C52083
:1023B00000F018F90E2000F009F9362000F012F9AB
:1023C000C82000F003F9E02000F00CF90F2000F025
:1023D000FDF81A2000F0FAF80F2000F0F7F81820A6
:1023E00000F0F4F82F2000F0F1F8282000F0EEF8CB
:1023F000202000F0EBF8222000F0E8F81F2000F089
:10240000E5F81B2000F0E2F8232000F0DFF8372089
:1024100000F0DCF8002000F0D9F8072000F0D6F832
:10242000022000F0D3F8102000F0D0F8E12000F0F6
:10243000D9F80F2000F0CAF81B2000F0C7F80F20D1
:1024400000F0C4F8172000F0C1F8332000F0BEF807
:102450002C2000F0BBF8292000F0B8F82E2000F066
:10246000B5F8302000F0B2F8302000F0AFF8392095
:1024700000F0ACF83F2000F0A9F8002000F0A6F82A
:10248000072000F0A3F8032000F0A0F8102000F0CF
:102490009DF82A2000F0A6F8002000F097F8002010
:1024A00000F094F8002000F091F87F2000F08EF802
:1024B0002B2000F097F8002000F088F8002000F0B2
:1024C00085F8002000F082F89F2000F07FF8F020CF
:1024D00000F088F8012000F079F8F62000F082F88A
:1024E000002000F073F83A2000F07CF8052000F09E
:1024F0006DF8292000F076F84FF6FF70FFF7AEFE7A
:1025000000F03DF810BD000010B5022005494861FB
:10251000642001F0E3F9022002490861322001F051
:10252000DDF910BD00100140F0B504460D46164619
:102530001F462A2000F056F8002000F047F8A11CA2
:10254000C8B200F043F8002000F040F8B11CC8B257
:1025500000F03CF82B2000F045F8002000F036F8A1
:10256000E91CC8B200F032F8002000F02FF8F91C86
:10257000C8B200F02BF82C2000F034F8F0BD704702
:10258000F0B505460E46802D01DC802E00DDF0BD45
:1025900033467F2229460020FFF7C6FF2C2000F09B
:1025A00021F800240CE0002707E0074901EB042193
:1025B00031F81700FFF7F4FD7F1C802FF5D3641C62
:1025C000102CF0D300BFE2E7AC00002010B50446A9
:1025D0004FF4807002490860204600F0E1F810BD19
:1025E000100C014010B504464FF480700249086099
:1025F000204600F0D5F810BD140C014000BFFEE7E6
:102600007047000070B5002100230F22C47804B386
:10261000154C246804F4E064C4F5E064210AC1F1B7
:102620000403CA40447804FA03F184781440214337
:1026300009010E4C0678A155047804F01F05012409
:10264000AC4005786D11AD0005F1E025C5F80041FD
:1026500009E0047804F01F050124AC40044D06781D
:10266000761145F8264070BD0CED00E000E400E076
:1026700080E100E002490143024A11607047000016
:102680000000FA050CED00E07047000029B1064A91
:10269000D2690243044BDA6104E0034AD2698243FF
:1026A000014BDA61704700000010024029B1064A70
:1026B00092690243044B9A6104E0034A926982439F
:1026C000014B9A61704700000010024030B50021B4
:1026D0000022002400232D4D6D6805F00C0121B16E
:1026E000042905D0082923D105E0294D056022E001
:1026F000274D05601FE0254D6D6805F47012234DD0
:102700006D6805F48034022505EB92421CB9214D19
:10271000554305600BE01D4D6D6805F400351DB196
:102720001C4D5543056002E0194D5543056002E01C
:10273000174D056000BF00BF144D6D6805F0F00136
:102740000909154D6B5C0568DD4045600F4D6D68EE
:1027500005F4E061090A104D6B5C4568DD40856059
:102760000A4D6D6805F46051C90A0B4D6B5C4568F4
:10277000DD40C560054D6D6805F44041890B074D8E
:102780006B5CC568B5FBF3F5056130BD0010024018
:1027900000127A0000093D000D0000201D000020FD
:1027A0000021082113E000F0800222B14FF4005212
:1027B000084B1A6103E04FF40052064B5A610122A4
:1027C000044B5A611A614206100E4A1ED1B200290A
:1027D000E9DC704700100140704710B500F002F8C6
:1027E00010BD00000CB50020019000903348006837
:1027F00040F480303149086000BF3048006800F480
:10280000003000900198401C0190009818B9019880
:10281000B0F5A06FF1D12948006800F4003010B184
:102820000120009001E0002000900098012843D191
:102830002348006840F010002149086008460068FD
:1028400020F0030008600846006840F002000860BD
:102850001A48406819494860084640684860084678
:10286000406840F4806048600846406820F47C106E
:1028700048600846406840F4E81048600846006830
:1028800040F08070086000BF0C48006800F00070E5
:102890000028F9D00948406820F003000749486043
:1028A0000846406840F00200486000BF03484068A6
:1028B00000F00C000828F9D10CBD00000010024007
:1028C00000200240042808D14FF0E021096941F0BE
:1028D00004014FF0E022116107E04FF0E0210969A7
:1028E00021F004014FF0E0221161704770470000B1
:1028F00010B51348006840F001001149086008460F
:102900004068104908400E494860084600680E4972
:1029100008400B4908600846006820F480200860E1
:102920000846406820F4FE0048604FF41F008860AD
:10293000FFF753FF4FF000600449086010BD00002E
:10294000001002400000FFF8FFFFF6FE08ED00E077
:1029500010B50121880700F0A4F8012812D10A4817
:102960000088401C0849088008460088B0F5FA6FC6
:1029700004DB002008800120044908700121880739
:1029800000F080F810BD0000280000202A00002080
:102990007FB505460C4601210846FFF777FEADF8E6
:1029A0000850ADF804400020ADF80A00ADF806006C
:1029B00001A94FF0804000F0F1F84FF4A060FFF75C
:1029C00059FE1C208DF8000000208DF80100032026
:1029D0008DF8020001208DF803006846FFF712FE13
:1029E00001221146900700F06DF80121880700F0E0
:1029F0004CF87FBD30B589B005460C460121022058
:102A0000FFF744FE01211120FFF750FE01211A4873
:102A1000FFF716FA8020ADF8200018208DF823006B
:102A200003208DF8220008A91448FFF77DF9ADF8BE
:102A30001850ADF814400020ADF81A00ADF816009B
:102A400005A90F4800F0AAF87020ADF80400002096
:102A5000ADF80E000120ADF8060001A9084800F00D
:102A60003BF80821064800F089F80121044800F0ED
:102A70000CF809B030BD0000000C1A000010014035
:102A800000040040CA430282704721B1028842F02C
:102A90000102028004E002884FF6FE731A400280B1
:102AA000704730B50246002000230024158A05EA4D
:102AB0000103958905EA010413B10CB1012000E07E
:102AC000002030BD1AB183890B43838102E08389E2
:102AD0008B4383817047000070B5002400220023DF
:102AE000058C4FF6EF7635400584028C8388048B85
:102AF00048F6FF752C404FF6FF452C400D884FF6E9
:102B0000FF7606EA05252C434FF6DF752A400D892E
:102B100006EA05152A434D8806EA05152A43154D90
:102B2000A84202D0144DA8421DD14FF67F752A400D
:102B30004D894FF6FF7606EA05152A434FF6BF7515
:102B40002A408D8806EA05152A434FF6FF352B40AB
:102B50004FF2FF752B408D8906EA85052B43CD8901
:102B600006EA85052B4383800483CD88058702848C
:102B700070BD0000002C0140003401400A460021D5
:102B8000018B4FF2FF7319404FF6FF7303EA0223E4
:102B900019430183704701877047000000220288B3
:102BA0001D4B98420ED01D4B98420BD0B0F1804F78
:102BB00008D01B4B984205D01A4B984202D01A4BB2
:102BC000984204D14FF68F731A404B881A43174B23
:102BD000984207D0164B984204D04FF6FF431A4054
:102BE000CB881A4302808B8883850B8803850A4B28
:102BF00098420BD0094B984208D00E4B984205D012
:102C00000D4B984202D00D4B984201D10B7A0386AE
:102C10000123838270470000002C014000340140F2
:102C20000004004000080040000C0040001000407C
:102C300000140040004001400044014000480140B1
:102C40007047000000B587B0012144F20400FFF78F
:102C50002DFD4FF40070ADF8180018208DF81B0002
:102C600003208DF81A0006A91F48FFF75DF84FF4FE
:102C70008060ADF8180004208DF81B0006A91A48E2
:102C8000FFF752F84FF4E13002900020ADF80C004D
:102C9000ADF80E00ADF81000ADF814000C20ADF842
:102CA000120002A9114800F0B9F8012240F22551A2
:102CB0000E4800F08EF84FF4A060FFF7DBFC032015
:102CC0008DF805008DF8060025208DF80400012000
:102CD0008DF8070001A8FFF795FC0121034800F0DB
:102CE00035F807B000BD0000000801400038014081
:102CF00010B540F22551064800F041F830B10448C3
:102D000000F0F8F8C4B22046FDF7B2FD10BD000097
:102D10000044004070B505460E46002403E0285DDF
:102D200000F004F8641CB442F9D370BD10B5044639
:102D30002146054800F0E3F800BF8021024800F07A
:102D400011F80028F9D010BD0044004021B182895B
:102D500042F40052828104E082894DF6FF731A40EA
:102D60008281704702460020B1F5007F00D100BF8C
:102D700013880B400BB1012000E00020704770B5B4
:102D80000246002400230025002040F66A16B142C6
:102D900000D100BFC1F3421501F01F03012606FA5E
:102DA00003F3012D02D19689334006E0022D02D1B2
:102DB000168A334001E0968A33400C12012606FA47
:102DC00004F41688344013B10CB1012000E0002057
:102DD00070BDF0B50346002400260025002040F613
:102DE0006A17B94200D100BF1846C1F3421401F07E
:102DF0001F06012707FA06F5012C01D10C3004E06B
:102E0000022C01D1103000E014301AB107682F43B2
:102E1000076002E00768AF430760F0BD2DE9F047A7
:102E200086B005460E460024A24600BFA1460027F4
:102E3000B08900B100BF2F462C8A4CF6FF700440C9
:102E4000F08804432C82AC894EF6F3100440B0881D
:102E500031890843718908430443AC81AC8A4FF639
:102E6000FF400440B0890443AC8201A8FFF72EFC68
:102E70001F48874202D1DDF810A001E0DDF80CA068
:102E8000A88900F4004040B10AEBCA0000EB0A1028
:102E900031684900B0FBF1F807E00AEBCA0000EB2B
:102EA0000A1031688900B0FBF1F86420B8FBF0F03B
:102EB00004012009642101FB1089A88900F4004065
:102EC00040B1322000EBC900B0FBF1F000F0070088
:102ED000044308E0322000EB09106421B0FBF1F05C
:102EE00000F00F0004432C8106B0BDE8F08700001D
:102EF0000038014001468888C0F308007047C1F3DC
:102F000008028280704700BFFEE700000FB4054B47
:102F100010B503A9044A029800F0F4F810BC5DF85B
:102F200014FB0000CD390008400000200FB4084B0E
:102F300010B504A902AA039800F0E4F8044602A917
:102F4000002000F076FC204610BC5DF814FB000069
:102F50003338000837B514460846064B6A46214602
:102F600000F0D0F804466946002000F062FC2046DC
:102F70003EBD000033380008004870474400002080
:102F800002E008C8121F08C1002AFAD17047704732
:102F9000002001E001C1121F002AFBD17047000090
:102FA0002DE9FF5FDDE90220010DDDF838B00243B5
:102FB00018D044F61050A1F2FF3141430D140F9880
:102FC000012820D0A5EB0B00401C5FEA000A4FF05F
:102FD0000004474EDFF81C91A046504616D5CAF1B2
:102FE000000728E00F98012443A2012808D00021FF
:102FF00000980F9BC0E90021C0E90243BDE8FF9F94
:103000006FEA0B01F4E7CBF10000DEE7074612E0C0
:10301000F80707D02246334640464946FDF714FAE2
:10302000804689462246334610461946FDF70CFA7B
:1030300004460E467F10002FEAD1DDE90201BAF105
:10304000000F42464B4602DAFDF7FEF901E0FDF7BC
:103050006DFA04460E460022284BFDF7EFFA03D81E
:103060004FF0FF30014607E00022254B2046314655
:10307000FDF743F9FDF7C9FA102409E0002C0ADB3B
:103080000A220023FDF7D0F8019B30321A55641E46
:1030900050EA0102F2D1641C019AC4F111031444F4
:1030A0000F9A012A03D0012208430DD10AE00843F8
:1030B00004D000204FF0110B0F9080E7A3EB0B051D
:1030C0006D1E0DE05B4504DD4FF0000205F10105CA
:1030D00004E003DA4FF00002A5F10105002AECD06C
:1030E00000980F99C0E90231C0E9004586E7000069
:1030F000000024400000F03F300000000000F043DA
:103100000000E03F2DE9FF4F95B09B4689460646FB
:1031100000250FE2252877D100242746F84A01210F
:10312000059400E0044316F8013F203B01FA03F048
:103130001042F7D130782A2811D06FF02F03307861
:10314000A0F13002092A16D8059A44F0020402EBD5
:10315000820203EB42021044761C0590EFE759F817
:10316000042B0592002A03DA504244F400540590DF
:1031700044F00204761C30782E2816D116F8010F80
:1031800044F004042A280DD06FF02F023078A0F10B
:103190003003092B09D807EB870302EB4303C71859
:1031A000761CF3E759F8047B761C30786C280FD036
:1031B00006DC4C2817D068280DD06A2814D104E00A
:1031C000742810D07A280FD10DE044F400140AE0DE
:1031D00044F4801401E044F440147278824202D135
:1031E00004F58014761C761C307866280BD013DC2E
:1031F000582877D009DC002875D04528F6D0462815
:10320000F4D047281AD19DE118E0632835D064280E
:1032100079D0652812D195E1702873D008DC672831
:10322000F1D069286FD06E280DD06F2806D1B5E097
:1032300073282CD0752875D0782874D05A461799E1
:1032400090476D1C75E1C4F30250022809D0032891
:103250000DD0D9F8001004280DD00D6009F1040933
:1032600067E1D9F80010EA17C1E90052F6E7D9F88A
:1032700000100D80F2E70D70F0E719F8041B8DF8CF
:10328000001000208DF80100EA46012003E059F803
:1032900004AB4FF0FF3061074FF0000102D40DE0A6
:1032A00008F101018846B9420FDA8045F8DB1AF8C7
:1032B00008100029F4D108E008F101018846814294
:1032C000FADB1AF808100029F6D105985B46A0EB46
:1032D000080721463846179A00F094FA284400EB74
:1032E000080507E04DE029E10DE01AF8010B5A4608
:1032F00017999047B8F10108F7D25B462146384646
:10330000179A13E142E00A220092C4F302524FF0EE
:10331000000A022A08D059F804CB032A4FEAEC71BC
:103320000AD00DE029E02AE009F1070121F00702A7
:10333000F2E802C1914609E00FFA8CFC4FEAEC7109
:10334000042A03D14FFA8CFC4FEAEC71002907DA0A
:103350000A460021DCF1000C61EB02012D2202E0A3
:10336000220504D52B228DF80420012203E0E20778
:1033700001D02022F7E7904659E00A2102E010220E
:103380000DE010214FF0000A00910BE010224FF0E9
:10339000000A44F004040827009203E008224FF0DA
:1033A000000A0092C4F30252022A05D059F804CB55
:1033B0000021032A08D009E009F1070121F00702E2
:1033C000F2E802C1914605E01FFA8CFC042A01D103
:1033D0000CF0FF0C4FF00008220728D5702806D00B
:1033E000009B83F0100353EA0A0305D00EE040224D
:1033F0008DF80420012208E05CEA010206D03022A8
:103400008DF804208DF8050002229046009B83F081
:10341000080353EA0A030AD15CEA010201D16207F8
:1034200005D530228DF804204FF001087F1E582862
:1034300004D034A003900EA802900DE036A0F9E766
:1034400053466046009AFCF7EFFE84460398825C80
:103450000298401E029002705CEA0100F0D10298CE
:1034600006A9081A00F1200A600702D524F4803466
:1034700000E00127574502DDA7EB0A0000E000202D
:1034800000EB0A01009005984144401A0590E003C2
:1034900006D45B462146179A059800F0B3F9054417
:1034A000002706E001A85A46C05D179990476D1C99
:1034B0007F1C4745F6DBE0030CD55B462146179A97
:1034C000059800F09FF9054404E030205A4617990A
:1034D00090476D1C0099481E00900029F5DC08E01B
:1034E000029802995A460078491C02911799904710
:1034F0006D1CBAF10001AAF1010AF1DC65E10000DE
:1035000009280100303132333435363738396162B9
:10351000636465660000000030313233343536377D
:1035200038394142434445460000000000F058F954
:103530000544761C307800287FF4ECAD19B028469D
:10354000BDE8F08F620700D4062709F1070222F0D8
:10355000070CFCE80223E14603F000485FEA080C90
:1035600002D00FF2702C0DE05FEA045C02D50FF27E
:10357000682C07E05FEAC47C02D00FF2602C01E007
:10358000AFF2700C4FF0FF3823F00043CDF850C07D
:1035900065280CD006DC452809D046281DD04728D0
:1035A0003DD13DE0662818D067287ED138E0002163
:1035B000112F01DB112000E0781CCDE9000106A9E4
:1035C0000EA8FFF7EDFCDDE90F010E9A0391002133
:1035D000009207F1010A04914DE04FF0004000977E
:1035E000CDE9011006A90EA8FFF7DAFCDDE90F020C
:1035F00003920E9B11990022DDF80CA00093049217
:1036000011B9791C00EB010AB7EB0A0004D4C0F130
:10361000FF3007F1010A0490AAEB0700019044E093
:10362000012F00DA01270021112F01DD112000E018
:103630003846CDE9000106A90EA8FFF7B1FCDDE987
:103640000F010E9A0391002104910092BA462107BE
:103650000CD40399514500DA8A46BAF1010F05DD11
:10366000009AAAF10101515C302908D0B84202DA6F
:1036700010F1040F06DA0121CDE9011015E0AAF1DD
:103680000101E9E7002805DC049901440491AAEB53
:10369000000102E0411C514500DD8A460499401AB0
:1036A000401C01904FF000400290200704D4019884
:1036B000504501DBCDF8048000208DF84F000298C2
:1036C0000DF14F07B0F1004F25D02B200E9002983E
:1036D0004FF0020800280CDA404202902D200E9094
:1036E00007E00A210298FCF789FD3031029007F8C3
:1036F000011DB8F10001A8F10108F2DC02980028D0
:10370000EFD1791E0E980870307800F0200040F05C
:10371000450007F8020D12A8C01B00F10708149815
:10372000007800B1012000EB0A01019801EBE07183
:1037300005984144401A401E0590E00306D45B46BC
:103740002146179A059800F05DF805441498007812
:1037500018B15A46179990476D1CE00324D55B4673
:103760002146179A059800F04DF805441CE004988E
:10377000002807DBDDE90301884203DD0098405C97
:10378000179901E0179930205A469047049805F19F
:103790000105401C04900198401E019004D12E2088
:1037A0005A46179990476D1CBAF10001AAF1010A17
:1037B000DDDC05E017F8010B5A46179990476D1CA0
:1037C000B8F10001A8F10108F4DC5B462146179A24
:1037D0000598ABE62D0000002B0000002000000043
:1037E0002DE9F041044600251E461746880404D4FE
:1037F00005E039462020B0476D1C641EF9D52846E7
:10380000BDE8F0812DE9F041044600251E469046B2
:10381000C80301D5302700E02027880404D505E03F
:1038200041463846B0476D1C641EF9D52846BDE8B0
:10383000F0810A68531C0B601070704710B500BF10
:1038400000211348A0F83A1790F83807401CC1B27D
:103850000F4880F8381790F83807142803DB002148
:103860000B4880F838170A4890F8384704EB4401B1
:10387000C1EBC412A0F5005101EB82004FF4FA71C4
:10388000FCF78BFC0021034820F8141010BD000049
:10389000EC330020FC3A002010B56FF00400FFF775
:1038A00011F80A4800680A49B0FBF1F009490870AC
:1038B0000846007800EB4001C1EBC0104FF6FF71E5
:1038C00001EAC0000449088010BD00002C0000205F
:1038D00000127A0022000020240000200146114A34
:1038E00012884A434FF0E0235A6100229A611A4637
:1038F000126942F001021A6100BF4FF0E022106924
:1039000000F001021AB100F48032002AF5D04FF025
:10391000E022126922F001024FF0E0231A61002236
:103920009A617047240000200146114A12784A43E8
:103930004FF0E0235A6100229A611A46126942F060
:1039400001021A6100BF4FF0E022106900F001028D
:103950001AB100F48032002AF5D04FF0E02212694B
:1039600022F001024FF0E0231A6100229A617047B1
:10397000220000200EB501210846FEF797FE002127
:103980000846FEF7B1F94FF4A060FEF773FE02207F
:103990008DF8090003208DF80A0006208DF8080034
:1039A00001208DF80B0002A8FEF72CFE01200090EC
:1039B00000208DF8040008208DF8050001208DF806
:1039C00006006846FEF746F90EBD000070B50446D5
:1039D0000D46E1B20548FFF792FA00BF8021034887
:1039E000FFF7C0F90028F9D0204670BD003801402B
:1039F00008B501211C20FEF759FE0120ADF800009A
:103A000028208DF8030069460B48FEF78DF9012048
:103A1000ADF8000048208DF8030069460748FEF71E
:103A200083F92020ADF8000048208DF80300694696
:103A30000348FEF779F908BD00080140000C014079
:103A40000010014010B501211448FEF741FA78B981
:103A50001420FFF743FF00BF01211048FEF738FA9A
:103A60000028F9D01420FFF739FF02200C49087014
:103A700020210C48FEF72CFA78B91420FFF72EFF0E
:103A800000BF20210748FEF723FA0028F9D01420B0
:103A9000FFF724FF03200249087010BD000C01400D
:103AA000260000200010014008B5FFF7CBFFAB480F
:103AB000007800287ED00120A9490860A748007836
:103AC000012804D002283AD0032837D173E0A54852
:103AD000007808B9012000E00020A24908700846DB
:103AE0000078012811D14FF6FF7070238022302119
:103AF00000900020FEF7CBFB9BA34FF6FF724FF622
:103B00001F010320FEF7F2F918E04FF6FF70702353
:103B10008022302100900020FEF7B9FB96A34FF6DB
:103B2000FF724FF61F010320FEF7E0F901209649CE
:103B300008609649C1F89C0195490860B6E04721A4
:103B400040F2E730FEF756FF9248007808B90120AE
:103B500000E000208F49087008460078012811D144
:103B60004FF6FF7070238022302100900020FEF776
:103B70008EFB89A34FF6FF724FF61F010320FEF75D
:103B8000B5F916E04FF6FF707023802230210090C7
:103B90000020FEF77CFB84A34FF6FF724FF61F0157
:103BA0000320FEF7A3F900218348FEF76EFFFEF71E
:103BB00007FB7BE07EE08148007808B9012000E047
:103BC00000207E49087008460078012858D14FF639
:103BD000FF7070238022302100900020FEF757FBF9
:103BE00077A34FF6FF724FF61F010320FEF77EF911
:103BF00076A379A27BA10220FDF7FCFC42F21073B0
:103C0000002241F690710120FDF7F6FB75A278A124
:103C10007948FFF78BF978484FF6FF731F223C2154
:103C200000900020FEF774FA6BA274A17248FFF7AF
:103C30007DF971484FF6FF731F2246210090002046
:103C4000FEF766FA61A26FA16B48FFF76FF96A4849
:103C50004FF6FF731F22502100900020FEF758FA04
:103C600041F6907269A16448FFF760F962484FF627
:103C7000FF731F225A2100900020FEF749FA14E03A
:103C80004FF6FF7070238022302100900020FEF755
:103C9000FEFA60A34FF6FF724FF61F010320FEF7F6
:103CA00025F904215E48FEF71CF900BF00BF002083
:103CB0002A4908702B480078012821D10020324978
:103CC00008604FF49670FFF709FE01205549C1F8CE
:103CD000A00100202E49091D08604FF49670FFF7DF
:103CE000FDFD01202A49091D08600020091F086008
:103CF0004FF49670FFF7F2FD01202449C1F89801B6
:103D000024480078012822D1FFF7E8FD46480078D2
:103D100028B146480088401C4449088004E04348D4
:103D20000088401E4149088040480088B0F57A7FED
:103D300002DB00203C4908703C48008810B9012093
:103D400039490870394801881B48FEF724FF1B4891
:103D50000078012801D1FDF739FF08BD26000020B9
:103D60008481214200000020202020B4F2BFAAC19B
:103D7000F7CBAEB5C6000000202020B9D8B1D5C120
:103D8000F7CBAEB5C6000000A001214200002242E0
:103D90009801224201000020202020B4F2BFAABADC
:103DA000F4CEFCB5C6000000202020B9D8B1D5BAA9
:103DB000F4CEFCB5C6000000000400400200002064
:103DC000202020C1ACBDD357694669003139322E5D
:103DD0003136382E312E31003132333435363738E2
:103DE00000000000536D61727420486F6D65000023
:103DF000535349443A257300480000205053573A22
:103E00002573000049503A2573000000504F52546A
:103E10003A256400202020B9D8B1D55769466900F9
:103E20000010014000002142050000200600002093
:103E30001CB500BF00BFFFF72FFDFEF7C1F9FFF76C
:103E4000D7FDFFF797FDFEF7FDFE4FF4E13000F0E0
:103E500005F9472140F2E730FEF79AFDFCF74AFDED
:103E6000FEF737FAFCF7F4FD39A34FF6FF72002195
:103E70000220FEF73BF83AA34FF6FF724FF61F0100
:103E80000320FEF733F83BA34FF6FF721F210420F7
:103E9000FEF72CF83BA34FF6FF721F210520FEF71B
:103EA00025F83CA34FF6FF721F210620FEF71EF8EF
:103EB000694601A8FCF76EFD40B99DF800309DF8F9
:103EC000042037A13C48FFF731F803E03BA13A4812
:103ED000FFF72CF8384B4FF6FF724FF4784108206B
:103EE000FEF704F832E0FFF7DFFD384800780128DC
:103EF0002CD1694601A8FCF74DFD38BB9DF8003078
:103F00009DF8042032A12C48FFF710F82A4B4FF6F9
:103F1000FF724FF478410820FDF7E8FF2648FCF7D0
:103F200059F984B221462448FDF788F89DF8040029
:103F3000172808DD2C48007828B900202B49086094
:103F4000012029490870002020490870CBE70000B3
:103F50002020D6C7C4DCBCD2BED3CFB5CDB30000C1
:103F600020B0B44B4559317E4B455933D1A1D4F1E2
:103F70000000000020202020312EC1F7CBAEB5C6B6
:103F80000000000020202020322EBAF4CEFCB5C65E
:103F90000000000020202020332E576946690000D1
:103FA000CEC2B6C83A253032642CCAAAB6C83A2561
:103FB0003032640D0A00000048000020CEC2CAAAB8
:103FC000B6C8B6C1C8A1CAA7B0DC00002A0000204C
:103FD000CEC2B6C83A253032642CCAAAB6C83A2531
:103FE0003032642E0D0A000003000020848121423B
:103FF00070B505460E46002403E0285D00F004F885
:10400000641CB442F9D370BD10B50446214605487E
:10401000FEF775FF00BF80210248FEF7A3FE0028CF
:10402000F9D010BD0038014008B501210820FEF785
:104030003DFB0220ADF8000010208DF803000320A6
:104040008DF8020069460348FDF76EFE0020024924
:10405000086008BD000C01408481214210B586B083
:10406000044601210420FEF721FB01214804FEF74C
:104070000DFB0420ADF8140003208DF81600182065
:104080008DF8170005A91D48FDF74EFE0820ADF874
:10409000140004208DF8170005A91848FDF744FE08
:1040A00026208DF8000003208DF801008DF8020015
:1040B00001208DF803006846FEF7A4FA0194002061
:1040C000ADF80800ADF80A00ADF80C00ADF810002E
:1040D0000C20ADF80E0001A90948FEF79FFE012251
:1040E00040F225510648FEF774FE01210448FEF710
:1040F0002DFEFFF799FF06B010BD0000000801403B
:104100000044004070B50446002504B970BD204647
:10411000FCF760F885B229462046FEF7FBFD2146F4
:1041200002A0FCF7B3FE00BFF0E7000041543E3EA2
:104130003E3A25730D0A0000000000000000000058
:10414000002F000000000700070000147F147F14F8
:1041500000242A7F2A12006264081323003649557E
:10416000225000000503000000001C224100000056
:1041700041221C000014083E08140008083E0808EC
:10418000000000A060000008080808080000606047
:104190000000002010080402003E5149453E000086
:1041A000427F4000004261514946002141454B3168
:1041B000001814127F10002745454539003C4A4934
:1041C00049300001710905030036494949360006A6
:1041D0004949291E0000363600000000563600000E
:1041E0000008142241000014141414140000412289
:1041F000140800020151090600324959513E007C61
:104200001211127C007F49494936003E414141224A
:10421000007F4141221C007F49494941007F090933
:104220000901003E4149497A007F0808087F0000E3
:10423000417F4100002040413F01007F081422419E
:10424000007F40404040007F020C027F007F040856
:10425000107F003E4141413E007F09090906003EB2
:104260004151215E007F09192946004649494931DB
:104270000001017F0101003F4040403F001F2040FE
:10428000201F003F4038403F0063140814630007BC
:104290000870080700615149454300007F41410013
:1042A00000552A552A55000041417F0000040201B3
:1042B0000204004040404040000001020400002091
:1042C00054545478007F48444438003844444420CF
:1042D00000384444487F00385454541800087E097C
:1042E00001020018A4A4A47C007F08040478000044
:1042F000447D4000004080847D00007F1028440001
:104300000000417F4000007C04180478007C080411
:10431000047800384444443800FC2424241800184D
:10432000242418FC007C0804040800485454542039
:1043300000043F444020003C4040207C001C2040C2
:10434000201C003C4030403C004428102844001C05
:10435000A0A0A07C004464544C44141414141414FD
:10436000000000000000000000000000000000004D
:10437000001010101010101010100000101000008D
:1043800000006C6C2424000000000100000000000C
:104390000024242424FE48484848FC909090900033
:1043A00000103C549290503814121292547810001D
:1043B0000000225C94A8481010242A52548800005F
:1043C000000030484850206E54948C888A74000055
:1043D000000030301010000000000000000000005D
:1043E00000040810102020202020201010080400B5
:1043F000008040202010101010101020204080005D
:104400000000000010543810385410000000000064
:1044100000000010101010FE10101010000000001E
:10442000000000000000000000000000101020004C
:1044300000000000000000FE00000000000000007E
:10444000000000000000000000000000101000004C
:104450000000040408081010202040408080000064
:104460000000384482828282828282824438000044
:10447000000010701010101010101010107C0000B0
:1044800000003844828204081020408284FC00002E
:1044900000003844820204380402028244380000DA
:1044A0000000040C141424244444FE04040E0000F0
:1044B0000000FC808080B8C4820202828478000000
:1044C00000003C428280B8C482828282443800006C
:1044D00000007E428204040808081010101000003A
:1044E000000038448282443844828282443800008A
:1044F0000000384482828282463A028244380000B8
:10450000000000001010000000001010000000006B
:10451000000000001010000000000010102000003B
:10452000000000000618608060180600000000000F
:10453000000000000000FE0000FE0000000000007F
:1045400000000000C0300C020C30C0000000000071
:10455000003844828202040810101000101000007D
:1045600000003844829AAAAAAAAAAA9680423C00CD
:10457000000010101028282844447C4444EE000019
:104580000000FC424242427C4242424242FC000065
:1045900000003C4482808080808082824438000019
:1045A0000000F844424242424242424244F8000083
:1045B0000000FC444240447C4440404244FC000033
:1045C0000000FC444240447C4440404040F0000035
:1045D0000000344C828080808E8484844C340000BF
:1045E0000000EE444444447C4444444444EE00000F
:1045F00000007C101010101010101010107C000023
:1046000000003E08080808080808088888700000AC
:104610000000EE44484850605048484444EE0000D2
:104620000000E040404040404040404244FC000028
:104630000000C6446C6C6C545454444444EE000076
:104640000000CE4464646454544C4C4C44E4000078
:104650000000384482828282828282824438000052
:104660000000F844424242447840404040E00000AC
:104670000000384482828282828282BA443C0200F4
:104680000000F048444444487048444444E6000074
:1046900000003C44828040300C02028244780000DA
:1046A00000007C54921010101010101010380000F0
:1046B0000000EE444444444444444444443800002C
:1046C0000000EE444444442828282810101000001C
:1046D0000000EE4454545454545428282828000010
:1046E0000000EE44442828101028284444EE00001E
:1046F0000000EE4444282828101010101038000044
:1047000000007E44840808102020408284FC0000C1
:10471000001C1010101010101010101010101C00A1
:104720000000EE445454FE54545428282828000015
:1047300000701010101010101010101010107000D9
:10474000003048840000000000000000000000006D
:104750000000000000000000000000000000FE005B
:1047600000402000000000000000000000000000E9
:104770000000000000007884047C84848C760000B3
:104780000000C04040405864424242426458000029
:104790000000000000003844808080804438000021
:1047A00000000C040404344C848484844C360000DF
:1047B000000000000000788484FC80808478000081
:1047C000000018242020F820202020202070000045
:1047D0000000000000003A444478807C82827C0023
:1047E0000000C040404058644444444444EE00004B
:1047F00000001010000030101010101010380000D1
:104800000000101000003010101010101090600008
:104810000000C04040405C485060504844EE0000FA
:10482000000030101010101110101010103900007E
:10483000000000000000ACD29292929292D600004A
:1048400000000000000058E44444444444EE0000EA
:104850000000000000003844828282824438000058
:10486000000000000000D864424242645840E0006A
:10487000000000000000364C8484844C34040E0098
:104880000000000000006C3020202020207000007C
:1048900000000000000078888460188444780000DC
:1048A000000000202020F8202020202024180000D4
:1048B000000000000000C64242424242463A000068
:1048C000000000000000EE444428282810100000DA
:1048D000000000000000EE44445454282828000042
:1048E000000000000000EE442810102844EE0000F4
:1048F000000000000000EE444428281010A0C00072
:104900000000000000007E448810204284FC00006B
:10491000000C1010101010601010101010100C006F
:1049200000101010101010101010101010101000A7
:1049300000C0202020202018202020202020C0007F
:1049400000000000000000728C0000000000000069
:104950000000000000001FE000003FF000003FF0FA
:1049600000001FE0000180060003C00F0003C00F1D
:104970000003C00F0003C00F0003C00F0003C00FEF
:104980000003C00F0003C00F00030003000000007D
:104990000000000000000000000300030003C00F3F
:1049A0000003C00F0003C00F0003C00F0003C00FBF
:1049B0000003C00F0003C00F0003C00F00018006FA
:1049C00000001FE000003FF000003FF000001FE08B
:1049D00000000000000000000000008000000180D6
:1049E00000000380000007800000078000000780AF
:1049F000000007800000078000000780000007809B
:104A00000000078000000780000001800000000017
:104A1000000000000000000000000180000007808E
:104A2000000007800000078000000780000007806A
:104A3000000007800000078000000780000007805A
:104A400000000380000001800000008000000000E2
:104A50000000000000001FE000003FF00000FFF039
:104A60000001FFE0000000060000000F0000000F42
:104A70000000000F0000000F0000000F0000000FFA
:104A80000000000F0000000F00001FE300007FF88F
:104A900000007FF800001FE0000300000003C000DA
:104AA0000003C0000003C0000003C0000003C000FA
:104AB0000003C0000003C0000003C000000180002C
:104AC00000001FF000003FF800003FFC00001FFE48
:104AD000000000000003FF800001FFC00000FFC0D5
:104AE00000007F80000000180000003C0000003C37
:104AF0000000003C0000003C0000003C0000003CC6
:104B00000000003C0000003C00007F8C0001FFE042
:104B10000001FFF000007F800000000C0000003C5E
:104B20000000003C0000003C0000003C0000003C95
:104B30000000003C0000003C0000003C00000018A9
:104B400000007F800000FFC00001FFC00003FF8065
:104B5000000000000000000000020001000300034C
:104B6000000380070003C00F0003C00F0003C00F45
:104B70000003C00F0003C00F0003C00F0003C00FED
:104B80000003C00F0003C00F00031FE300007FF805
:104B900000007FFC00001FE0000000030000000F89
:104BA0000000000F0000000F0000000F0000000FC9
:104BB0000000000F0000000F0000000F0000000FB9
:104BC00000000007000000030000000100000000DA
:104BD0000000000000001FFC00003FF800003FF054
:104BE00000001FE0000180000003C0000003C000BF
:104BF0000003C0000003C0000003C0000003C000A9
:104C00000003C0000003C00000031FE000007FF8A5
:104C100000007FF800001FE0000000030000000F0C
:104C20000000000F0000000F0000000F0000000F48
:104C30000000000F0000000F0000000F0000000641
:104C400000003FE000007FF00000FFF00001FFE007
:104C50000000000000001FFC00003FF800003FF0D3
:104C600000001FE0000180000003C0000003C0003E
:104C70000003C0000003C0000003C0000003C00028
:104C80000003C0000003C00000031FE000007FF825
:104C900000007FFC00001FE0000300030003C00FC2
:104CA0000003C00F0003C00F0003C00F0003C00FBC
:104CB0000003C00F0003C00F0003C00F00018006F7
:104CC00000001FE000003FF000003FF000001FE088
:104CD000000000000007FFE00003FFC00001FF88A4
:104CE0000000FF1800000038000000780000007885
:104CF00000000078000000780000007800000078D4
:104D0000000000780000007800000018000000009B
:104D10000000000000000000000000180000007803
:104D200000000078000000780000007800000078A3
:104D30000000007800000078000000780000007893
:104D4000000000380000001800000008000000000B
:104D50000000000000001FE000003FF000003FF0F6
:104D600000001FE0000180060003C00F0003C00F19
:104D70000003C00F0003C00F0003C00F0003C00FEB
:104D80000003C00F0003C00F00031FE300007FF803
:104D900000007FFC00001FE0000300030003C00FC1
:104DA0000003C00F0003C00F0003C00F0003C00FBB
:104DB0000003C00F0003C00F0003C00F00018006F6
:104DC00000001FE000003FF000003FF000001FE087
:104DD0000000000000001FE000003FF000003FF076
:104DE00000001FE0000180060003C00F0003C00F99
:104DF0000003C00F0003C00F0003C00F0003C00F6B
:104E00000003C00F0003C00F00031FE300007FF882
:104E100000007FFC00001FE0000000030000000F06
:104E20000000000F0000000F0000000F0000000F46
:104E30000000000F0000000F0000000F000000063F
:104E400000001FE000003FF000007FF00000FFE0E6
:104E50000000000000000000000000000000000052
:104E60000000000000000000000000000000000042
:104E70000000000000000000000000000000000032
:104E80000000000000000000000000000000000022
:104E90000000000000000000000000000000000012
:104EA000000000000000780000007800000078009A
:104EB000000078000000780000007800000000008A
:104EC00000000000000000000000000000000000E2
:104ED00000000000000000000000000000000000D2
:104EE00000000000000000000000000000000000C2
:104EF0000000070000000F8000000F8000000F80FE
:104F0000000007000000000000000000000000009A
:104F1000000000000000000000000000000007008A
:104F200000000F8000000F8000000F8000000700CD
:104F30000000000000000000000000000000000071
:104F40000000000000000000000000000000000061
:104F50000000000000000000000000000000000051
:104F60000007C006000FE0060000000C0030181813
:104F70000030181800301830003018300030186039
:104F8000003008C00007C0C0000FE0800000000033
:104F90000000000FE0000607C000063018000C30CB
:104FA00018000C301800183018003030180030305D
:104FB000180060000000C00FE000C007C000000043
:104FC00000000000000000000000000000000000E1
:104FD00000000000000000000000000000000000D1
:104FE0000000000000000000000700E0000887FC4F
:104FF00000088E0300089801800718008000300028
:105000000000300000007000000060000000600040
:105010000000600000006000000060000000700000
:1050200000003000000030000000380000001801CF
:1050300000000C03000007FC000001F0000000006D
:105040000000000000000000000000000000000060
:105050000000000000000000000000000000000050
:105060000000000000000000000000000000000040
:105070000000000000000000000000000000000030
:1050800000000000000000000000000000003FF0F1
:1050900000007FF000007FE00000FFC00000000083
:1050A0000000000000000000000000000000000000
:1050B00000000000000000000000000000000000F0
:1050C00000000000000000000000000000000000E0
:1050D0000000C4AC0020FE289224D624BA2093FEFF
:1050E000FE201020FE2010501E50E0500288AA889A
:1050F000A9048202C8CF0040204010401040004068
:105100000040F040104010A010A010A01510191081
:10511000120804040802BAF40008003C7BE04820AE
:10512000492448A448A848204BFE4820782048201D
:105130000020002000A00040BDD0000400047C84BA
:1051400044844484448444844484448C44B47CC46F
:1051500044840004000400040004BAC500001FF0E9
:105160001010101010101FF00000FFFE08001000BB
:105170001FF000100010001000A00040C2EB000063
:1051800001F8FC081008108820883C8864FE64023E
:10519000A402240225FA3C02240220140008D5FDB2
:1051A00000007FFC0100010001000100110011F866
:1051B000110011001100110011001100FFFE00008C
:1051C000D4DA020002000400FFFE0800084010408C
:1051D000304057FC904010401040104010401FFEDF
:1051E0001000B9D21020102011FC1020FC2010203B
:1051F00013FE100018203020D1FC102010201020A9
:1052000053FE2000B6CF0400040455784E404440BD
:105210007F40447E4E48554865484448444840488D
:105220007F8800880108D3D002000200FFFE04003E
:1052300004000FF0081018102FF0481088100FF01D
:105240000810081008500820B5E70100010001000F
:105250003FF82108210821083FF8210821082108EA
:105260003FF8210A0102010200FEBBB00008203C09
:1052700011E01020002003FEF0201020102011FC6F
:10528000110411041504190411FC0104BAF40008F6
:10529000003C7BE04820492448A448A848204BFE15
:1052A0004820782048200020002000A00040C8EBC3
:1052B000040002000100010001000280028002805F
:1052C00004400440082008201010201040088006E8
:1052D000BDD31080104013FC1000FD08109017FE85
:1052E0001040184037FED088110810901060519877
:1052F0002604CCFD0008001C79E049004900490063
:1053000049FE491049104910791049100110021046
:1053100002100410CDA8000047F8201021A0004082
:1053200007FCE444244427FC2444244427FC24446C
:10533000245454088FFED6D0010001000100010062
:105340003FF8210821082108210821083FF82108F9
:105350000100010001000100B3F52000100001FC74
:10536000FC440844104410443444584494441444C5
:1053700010841084110412281410CABC10201020AC
:1053800010201040FC48248425FE2482240048FC80
:10539000288410842884448480FC0084BBAF088067
:1053A000088008841088109030A030C05080918010
:1053B00012801480108210821082107E1000CAD5D4
:1053C000084008404840488048FE49084A884888C4
:1053D00048885850685048200850088809040A0234
:1053E000B5BD0004FF840804102422244124FFA436
:1053F00008A4082408247F24082408040F84F8142F
:105400004008D0C5084008200BFE1000100031FCF9
:105410003000500091FC1000100011FC1104110428
:1054200011FC1104CFA2010002001FF010101FF0A8
:1054300010101FF010101FF0101001000884489287
:10544000481287F00000CDCB03F82208120813F8A9
:1054500002080208F3F812441228121012881304EA
:105460001204280047FE0000B3F6010001002108E5
:105470002108210821083FF801080100010041042A
:105480004104410441047FFC0004C4E30880088017
:10549000088011FE1102320434205020912811247A
:1054A000122412221422102010A01040BAC310009F
:1054B00010FC10041008FC102420242025FE2420B9
:1054C0004820282010202820442084A00040BBB67B
:1054D00000800080FC8004FC050449082A40144038
:1054E000104028A024A045108110020804040802DE
:1054F000D3AD00002080133C122402240224F224A5
:105500001224122412B4132812201020282047FE3F
:105510000000B9E20100210811080910092001006A
:10552000FFFE044004400440044008420842104288
:10553000203EC000C1D908800880088049FE49404B
:105540004A204C20480049FC492449244924492444
:1055500009FC09040800CAB9104010401FFE204091
:10556000204067FC6444A44427FC204022402140A2
:105570002080214022302C0ED3C300003FF82108A8
:10558000210821083FF82108210821083FF82108B7
:1055900021082108410841288010D2DA08000800BB
:1055A0000BFC10081010302030405080908011000B
:1055B000110012021202120211FE1000D1D00000DE
:1055C00001FCFC881088108820883C8867FE64886D
:1055D000A488248824883C88250821080208D7D379
:1055E00000007FF800100020004001800100FFFE55
:1055F000010001000100010001000100050002009E
:10560000BFAA00007FFC08200820082008200820EE
:10561000FFFE08200820082008201020102020204D
:105620004020B7A201001110110822003FFC020027
:10563000040007F80A080908111010A0204040A033
:1056400003181C06B0E51008101C11E01100FD0045
:1056500011FC31443944554455289128111011103A
:10566000122812441482CEC2000023F81208120835
:1056700083F84208420813F8100027FCE4A424A48D
:1056800024A424A42FFE0000B6C8010000803FFE21
:10569000222022203FFC2220222023E020002FF085
:1056A0002410422041C08630380ECAAA000027F8D4
:1056B0001408140887F84408440817F8112021201A
:1056C000E9242528233021202FFE0000C4FA0900F8
:1056D000090011FC320454489950114812441444F2
:1056E0001140108002005104511290120FF0B2CA02
:1056F00001000784780408884490252220020404CD
:105700007F880C101622150224844408841004603B
:10571000C9AB080008001FE020204040BFF8210866
:10572000210821083FF820002002200220021FFE4D
:105730000000A3BA0000000000000000000000000C
:105740000000000000003000300000003000300099
:1057500000000000BFD810401020102013FEFA02F5
:10576000149411081A043000D1FC102010201020CD
:10577000102057FE2000D6C60404240424043FA4AD
:1057800044240424FFE4042404243FA424A424A4E3
:105790002684250404140408B1B3048004987CE032
:1057A00004841C84E47C40001FF010101FF01010D3
:1057B0001FF01010101010501020C9EE000027FC30
:1057C000140414A4811042084040104017FC2040EB
:1057D000E0E0215022482C4620400040DBDA110452
:1057E0001124112411241124FD2411241124112425
:1057F000112411241D24E124422402040404CEEFC8
:1058000010801080508050FC7D545254905410945D
:105810001C94F124522410441044108411281010B8
:10582000C1AA0088FC484850480079FC482048201C
:1058300078204BFE48204C507850C88808880904CE
:105840000A02CDF800007FFC400440044214529448
:105850004A54442444244A544A545294610440040F
:1058600040144008B9A4000000007FFC01000100C2
:105870000100010001000100010001000100010020
:10588000FFFE00000000B3CC08001DFCF104110471
:105890001104FDFC1000300039FE5420542091FC0E
:1058A0001020102013FE1000D3EB10001000100089
:1058B0001FFC1000200020003FF80008000800082E
:1058C000FFC80008000800500020D6C720003E7C1A
:1058D00048440844FF441444227C40001FF0101048
:1058E00010101FF0101010101FF01010C4DC10402A
:1058F00024444248FF70014000427E42423E420042
:105900007E44424842707E4042424A42443EBCD2BB
:10591000020001007FFE400280047FFC02000D08AF
:10592000719002A00CC071A006981886E280010058
:10593000BED300003FF8200820083FF820802080D8
:105940003FFE208020802FF82808480848088FF85C
:105950000808CEC2000023F81208120883F8420893
:10596000420813F8100027FCE4A424A424A424A4CF
:105970002FFE0000CAAA000027F81408140887F8B0
:105980004408440817F811202120E9242528233051
:1059900021202FFE0000B6C8010000803FFE22201B
:1059A00022203FFC2220222023E020002FF0241080
:1059B000422041C08630380ECFB500F83F000400C9
:1059C000082010403F800100061018087FFC0104E9
:1059D00009201110210845040200CDB31040102009
:1059E000202023FE4840F888110423FE4092F890BE
:1059F000409000901912E112420E0400B0B4104021
:105A00001020102013FEFA02144410401BFE3088B0
:105A1000D088110810D01020105050882304D1A134
:105A200000402240124013F804400040F7FC1120CF
:105A30001120112012241224141C280047FE0000FB
:105A4000D4F1200027F822082110F0A0204021B036
:105A5000264E3040E3F82040204027FC2040A04064
:105A60004040C1F70080204017FE1080811042089E
:105A700047FC100410002248E24822482248224AEB
:105A8000244A0846CBAE01000100010001080108CC
:105A90007D9005A009400940112011102108410600
:105AA000810005000200B5C61000100013FE102092
:105AB0005420582050209020102010201020282002
:105AC0002420442040A08040C1AC0040204017FE6C
:105AD000108000A00120F3FC10201020102017FEE1
